:020000040800F2
:10000000F809002001010008551500082B0E000812
:10001000F51300087D0B0008F32500080000000020
:10002000000000000000000000000000111B00089C
:10003000F90C00080000000081170008251C0008CA
:100040001B0100081B0100081B010008391A0008E9
:100050001B0100081B0100081B0100081B01000810
:100060001B0100081B0100081B0100081B01000800
:100070001B0100081B0100081B0100081B010008F0
:100080001B0100081B0100081B0100081B010008E0
:100090001B0100081B0100081B0100081B010008D0
:1000A0001B010008891C00081B0100081B01000837
:1000B000151D00081B0100081B0100081B0100089A
:1000C0001B0100081B0100081B0100081B010008A0
:1000D0001B010008BD2400081B010008DD240008E6
:1000E0001B0100081B0100081B010008DFF80CD0F1
:1000F00000F034FB0048004701310008F8090020F7
:100100000648804706480047FEE7FEE7FEE7FEE7B1
:10011000FEE7FEE7FEE7FEE7FEE7FEE7291C000834
:10012000ED00000838B5D0E90221491E01EB41017C
:1001300002EBC1014268C1EB011102EB81010268CF
:10014000C1EB011102EB8102D0E9043101EB410165
:1001500003EB81013023A1F5527191FBF3F4174DAC
:100160006C4302EBC41291FBF3F403FB14110092F5
:100170001A2902DB124B1A4400920C2291FBF2F373
:10018000104C6343009C04EBC313009391FBF2F308
:1001900002FB13110C4A08E0491E40F2A324535CF1
:1001A0006343009C04EBC31300930029F4DC014675
:1001B000684600F09DF8009838BD00003F0C0F0025
:1001C0008051010067C20300B077000840EA0103D4
:1001D0009B0703D009E008C9121F08C0042AFAD2FD
:1001E00003E011F8013B00F8013B521EF9D27047C1
:1001F000421C10F8011B0029FBD1801A704796237E
:100200000022114600F0C3B820F00040C10DC0F339
:10021000160040F400007F2901DA0020704796297B
:1002200003DCC1F19601C840704796398840704799
:1002300000F0004230F000400AD0C10D01F56071BD
:10024000C0F3160042EA0151C2084007114370474B
:1002500000200146704730B50B46014600202022A1
:10026000012409E021FA02F59D4205D303FA02F5C3
:10027000491B04FA02F52844151EA2F10102F1DC23
:1002800030BD2DE9F05F0546002092469B4688462A
:100290000646814640241BE0284641464746224602
:1002A00000F07DFA53465A46C01A914110D31146C8
:1002B0001846224600F064FA2D1A67EB01084F46F3
:1002C00022460120002100F05BFA17EB00094E41A5
:1002D000201EA4F10104DFDC484631462A4643468D
:1002E000BDE8F09F014900F003B80000CC050020F4
:1002F00010B500683C22B0FBF2F302FB1303B0FB25
:10030000F2F00B60B0FBF2F302FB1303B0FBF2F070
:1003100018224B60B0FBF2F302FB1303B0FBF2F0C8
:10032000021D8B600723B2FBF3F403FB1422800051
:1003300040F2B55300F66C308A61B0FBF3F2B0FBCB
:10034000F3F403FB1400443280084A61C8613B287F
:1003500002D3920700D0401C0022074C13460A61CA
:10036000E25C824203D8801A5B1C0B61F8E7401CF8
:10037000C860084610BD0000BC7700080029A8BF6F
:100380007047401C490008BF20F00100704710B4BE
:10039000B0FA80FC00FA0CF050EA010404BF10BC73
:1003A000704749B1CCF1200421FA04F411FA0CF1A0
:1003B00018BF012121430843A3EB0C01CB1D4FEAD9
:1003C00000614FEA102042BF002010BC704700EBD4
:1003D000C35010440029A4BF10BC7047401C490002
:1003E00008BF20F0010010BC70472DE9FE4F804689
:1003F00081EA0300C00F0C46009021F0004123F079
:100400000045B8EB0200A94105D24046214690467E
:100410001C460B46024623F00040104347D0270DF0
:10042000C7F30A00C3F30A510290401A0190402812
:100430006BDAC3F3130040F4801B0098924620B19E
:100440000023D2EB030A63EB0B0B01985946C0F172
:100450004002504600F094F906460D465046594673
:10046000019A00F0ACF910EB08006141002487EA22
:10047000115284EAE7731A4340D0009A62B3019A9A
:10048000012A4FEA075215DC001B61EB02014FF015
:10049000004202EA0752CDE90042001C41F58011FA
:1004A00032462B4600F0ACF903B0BDE8F08F404671
:1004B0002146F9E7001B61EB0201001C41F58013A6
:1004C00000185B412018A2F5001747EB030140EA32
:1004D000D570B6196D4111E06D084FEA360645EA50
:1004E000C0754FEA0752001B61EB0201001C41F589
:1004F000801149084FEA30000019514132462B461D
:1005000003B0BDE8F04F00F06CB900980122400044
:100510000023D0EB020263EBE073009821464FEA20
:10052000E074B8EB000061EB0401E9E783F00043FD
:100530005BE781F0004158E72DE9FE4F81EA0304B3
:1005400004F0004421F0004100944FF0000B23F030
:10055000004350EA01045ED052EA03045BD0C3F3C7
:100560000A54C1F30A552C44A4F2F3340194A0FBBD
:100570000254C1F3130141F48011C3F3130343F494
:10058000801301FB024400FB034E840A970A44EAED
:10059000815447EA8357A4FB076802958D0A05FB3F
:1005A00007854FEA932C04FB0C542705029D4FEA64
:1005B000065847EA1637B5EB08056EEB070C870EB1
:1005C000920E47EA811742EA8312A7FB0201B6EBBB
:1005D0000B0164EB00042B0D43EA0C335E1844EB73
:1005E0001C50DA465146E7FB0201C5F313044FEAFB
:1005F0000B3343EA14534FEA0432019C43EA0603E7
:10060000A4F10C040294009CCDE900B400F0F8F8C9
:1006100003B0BDE8F08F00200146F9E72DE9F04D69
:1006200081EA030404F0004B21F0004514464FF02A
:10063000000A23F0004150EA050220D054EA0102EA
:100640001DD0C5F30A570246C5F31303C1F31300C7
:10065000C1F30A5640F4801543F48013A7EB060853
:10066000101BD64608F2FD3873EB050002D308F1E3
:10067000010801E092185B41B8F1000F03DA002095
:100680000146BDE8F08D00204FF4801106468446F7
:100690000EE0171B73EB050705D3121B63EB050375
:1006A00006434CEA010C49084FEA300092185B41BE
:1006B00050EA0107EDD152EA030012D082EA0400A9
:1006C00083EA0501084305D0101BAB4106D2012285
:1006D000002306E000224FF0004302E06FF0010229
:1006E00053101AEB06004CEB085110EB0A0041EBDB
:1006F0000B01BDE8F04D00F074B8C1F30A52C1F32C
:10070000130140F2FF3341F480119A4202DA0020D3
:100710000146704740F233439A42A2F2334202DC70
:10072000524200F03CB800F02BB8000030B5041E77
:1007300071F1000404DB4FF00044404264EB01011E
:10074000141E73F1000405DB1C464FF000435242B7
:1007500063EB0403994208BF904230BD064C074D3D
:1007600006E0E06840F0010394E807009847103481
:10077000AC42F6D3FFF7BEFCC8770008E877000864
:10078000202A04DB203A00FA02F100207047914051
:10079000C2F1200320FA03F3194390407047202A46
:1007A00004DB203A21FA02F00021704721FA02F31B
:1007B000D040C2F120029140084319467047202AD8
:1007C00006DBCB17203A41FA02F043EAE07306E079
:1007D00041FA02F3D040C2F1200291400843194689
:1007E000704710B5141E73F1000408DA401C41F183
:1007F000000192185B411A4301D120F0010010BDA5
:100800002DE9F04D92469B4611B1B1FA81F202E01A
:10081000B0FA80F220329046FFF7B2FF04460F464E
:1008200040EA0A0041EA0B0153465A46084313D0F6
:10083000114653EA010019D0C8F140025046FFF7B3
:10084000AEFF05460E46504659464246FFF798FF12
:10085000084305D0012004E020463946BDE8F08D6C
:100860000020054346EAE0762C4337430A986305A7
:10087000E40AA0EB08000022FD0A44EA47540A30CB
:1008800002D500200146E9E7010510196941DDE9BB
:10089000084500196941BDE8F04DA2E72B48C08822
:1008A0002B4991F90010884211D128480089284924
:1008B00091F9011088420AD124484089244991F9CC
:1008C0000210884203D101202249C87030E01F483D
:1008D000C088214991F90010884211D11B48008934
:1008E0001D4991F9011088420AD1184840891A49D6
:1008F00091F90210884203D101201649C87017E00F
:100900001248C088154991F90010884210D10F484B
:100910000089124991F90110884209D10B48408998
:100920000E4991F90210884202D101200949C8708C
:100930000B48007840B10020094908700548C0788C
:1009400010B100200349C870704700004E0000201D
:100950000D000020040000201000002013000020E3
:100960006400002010B500200A49086001F0BEF8BC
:1009700000200949C1F89C01022002F09BFB0120E4
:1009800004490860022002F095FB00200249C1F8EA
:10099000980110BD980121420000214210B50020AD
:1009A0000A49086001F0A2F801200949C1F89C0138
:1009B000022002F07FFB012004490860022002F0BF
:1009C00079FB00200249C1F8980110BD980121422D
:1009D0000000214270B50546002401F075F800269C
:1009E00016E000200F490860022002F063FB01209E
:1009F0000D49C1F898016006040E0A487C38006869
:100A000008B1601CC4B2012002F054FB701CC6B2D5
:100A1000082EE6DB15B9FFF7C1FF01E0FFF7A2FFE3
:100A2000204670BD980121420000214270B5044665
:100A300001F05CF800201349086000251EE0E00981
:100A400020B101200F49091D086003E000200D4975
:100A5000091D08606006040E022002F02BFB012035
:100A600008490860022002F025FB00200649C1F871
:100A70009801022002F01EFB681CC5B2082DDEDBC7
:100A800070BD0000980121420000214210B501F024
:100A90002DF80120094908600949C1F8980104208E
:100AA00002F008FB002005490860042002F002FB68
:100AB00000200349C1F8980110BD00009C012142AB
:100AC0000000214210B501F011F80020084908602B
:100AD0000849C1F89C01042002F0ECFA0120044905
:100AE00008600449C1F89C01042002F0E3FA10BD3B
:100AF000980121420000214210B5002400F0E4FFDB
:100B000001200E49086002F0D5FA01200C49C1F815
:100B1000980102F0CFFA07E0601CC4B2FA2C03DDA2
:100B2000FFF7D0FF012010BD04488038006800287E
:100B3000F2D10249091F086000BFF4E79C0121427D
:100B40000000214208B501460020009003480090B3
:100B50000098084400900098008808BD006C004090
:100B600008B500220092044A0092009A02440092C2
:100B7000009A116008BD0000006C004000BFFEE755
:100B800008B50121042000F00DFE1020ADF8000092
:100B90008DF8030003208DF802006946014800F03B
:100BA000ACF808BD0008014010B5FFF7E9FF1021BF
:100BB000014800F038F910BD0008014008B51020C8
:100BC000ADF8000048208DF803006946014800F0A8
:100BD00094F808BD0008014008B51020ADF80000E9
:100BE0008DF8030003208DF802006946014800F0EB
:100BF00084F808BD0008014070B50025002424E0F9
:100C000000BF1021134800F003F90028F9D0282074
:100C100002F050FA10210F4800F0FAF801280DD127
:100C200000BF10210B4800F0F3F80128F9D0C4F1FF
:100C3000070101208840C0B2054304E0C4F1070168
:100C4000012088408543601CC4B2082CD8DB2846AC
:100C500070BD00000008014010B50446FFF7BCFF5E
:100C60001021244800F0DDF8122002F0FDF91021D7
:100C7000204800F0D8F81E2002F01CFAFFF79EFF73
:100C800010211C4800F0C4F880BB00BF1021194897
:100C900000F0BEF80028F9D000BF1021154800F080
:100CA000B7F80128F9D0FFF7A7FF2070FFF7A4FFDE
:100CB0006070FFF7A1FFA070FFF79EFFE070FFF7E5
:100CC0009BFF2071FFF788FF10210A4800F0ABF866
:100CD000207861780844A1780844E17808442179B3
:100CE000884201D1012010BD0020FCE7FFE7002071
:100CF000F9E700000008014070472DE9F041024685
:100D000000250026002000230024002791F803C0BE
:100D10000CF00F0591F803C00CF0100CBCF1000FA3
:100D200003D091F802C04CEA050591F800C0BCF16F
:100D3000000F31D0146800202BE04FF0010C0CFAAA
:100D400000F3B1F800C00CEA03069E4220D18300F4
:100D50004FF00F0C0CFA03F7BC4305FA03FC4CEA06
:100D6000040491F803C0BCF1280F06D14FF0010C28
:100D70000CFA00FCC2F814C00AE091F803C0BCF100
:100D8000480F05D14FF0010C0CFA00FCC2F810C05E
:100D9000401C0828D1D31460B1F800C0BCF1FF0F8B
:100DA00034DD546800202EE000F1080C4FF00108FB
:100DB00008FA0CF3B1F800C00CEA03069E4221D1F8
:100DC00083004FF00F0C0CFA03F7BC4305FA03FC49
:100DD0004CEA040491F803C0BCF1280F05D100F1DE
:100DE000080C08FA0CF8C2F8148091F803C0BCF1A2
:100DF000480F07D100F1080C4FF0010808FA0CF871
:100E0000C2F81080401C0828CED35460BDE8F081A1
:100E10000246002093680B400BB1012000E0002047
:100E20007047416170470161704700BFFEE70000F5
:100E300010B54FF480510948FFF7F5FF4FF40061FA
:100E40000648FFF7F0FF4FF400610448FFF7E9FFA1
:100E50004FF480510148FFF7E4FF10BD0008014046
:100E600010B54FF480510748FFF7DDFF4FF40061E4
:100E70000448FFF7D6FF4FF400610248FFF7D3FFA5
:100E800010BD00000008014010B54FF48051044827
:100E9000FFF7C9FF4FF480510148FFF7C2FF10BDB3
:100EA000000801402DE9F84300F00AFBA34804883C
:100EB000857807791E220021282002F08DF91F2253
:100EC0000021382002F088F920220021482002F079
:100ED00083F99B48007800287ED110200090974825
:100EE000028804230221082002F0AAF91422022118
:100EF000282002F071F910200090904842880223C7
:100F00001946382002F09CF915220221482002F0EF
:100F100063F91020009089488288022319465820DE
:100F200002F08EF916220221682002F055F91020F5
:100F300000908248C28804231946002002F080F9FC
:100F400017220421202002F047F9102000907B484E
:100F5000028902230421302002F072F918220421B0
:100F6000402002F039F91020009074484289022391
:100F70000421502002F064F919220421602002F0BB
:100F80002BF92C220621282002F026F92D220621F9
:100F9000382002F021F9012D03D1601E84B20D2505
:100FA00004E0022D02D1601E84B20E25691C01EB03
:100FB0004101052291FBF2F1022202FB057211446C
:100FC00021442046E21704EB927201EBA201642255
:100FD00094FBF2F2891A00E03EE04FF4C87294FBF1
:100FE000F2F21144072291FBF2F302FB1311491CA8
:100FF000CEB2082E2FD2DFE806F02E040A10161CFF
:1010000022282E220621482002F0E6F823E02F2293
:101010000621482002F0E0F81DE030220621482099
:1010200002F0DAF817E031220621482002F0D4F865
:1010300011E032220621482002F0CEF80BE03322E4
:101040000621482002F0C8F805E02A22062148209F
:1010500002F0C2F800BF6EE01E220021282002F03C
:10106000BBF81F220021382002F0B6F82022002110
:10107000482002F0B1F800220221104602F0ACF83C
:1010800002221146102002F0A7F810233A22022172
:10109000202000F011FB01220421002002F09CF826
:1010A00002220421102002F097F810233A22042192
:1010B000202000F001FB06221146002002F08CF8EF
:1010C00007220621102002F087F810233A22062179
:1010D000202000F0F1FA102000901A4882780223B4
:1010E0001946302002F0ACF8102000901548027824
:1010F00002230421302002F0A3F813490868FFF707
:1011000083F88046102004234246062100903020B8
:1011100002F096F803220221402002F05DF810232D
:101120000AA20421402002F0CFF8102308A20621D1
:10113000582002F0C9F8BDE8F88300004E000020F6
:101140000C000020760000200000002025524800FE
:101150004C7578000146CA1701EB92729210A1EB10
:10116000820292B9642091FBF0F200FB121050B998
:101170004FF4C87091FBF0F200FB121008B9012087
:1011800070470020FCE70120FAE70020F8E70000A4
:1011900008B50121082000F005FB4FF20200ADF870
:1011A000000048208DF8030069460A48FFF7A5FDB6
:1011B00069460848FFF7A1FD69460648FFF79DFD0F
:1011C00069460448FFF799FD69460248FFF795FD17
:1011D00008BD0000000C01400348007810B9012050
:1011E0000149087070470000600000200348007843
:1011F00010B901200149087070470000610000200B
:101200000348007810B901200149087070470000B8
:10121000620000200348007810B9012001490870DD
:1012200070470000630000200348007810B90120D7
:1012300001490870704700006400002010B54FF4A9
:1012400080516948FFF7E4FDE0B968480068C8B913
:1012500067480068401C6649086008460068022824
:101260000FDD4FF480516048FFF7D2FD002808D110
:101270005E4800680028FAD1FFF7AEFF01205B4905
:101280000860AFE04FF400515748FFF7C1FDE0B9E7
:1012900056480068C8B956480068401C5449086060
:1012A000084600680228ECDD4FF400514E48FFF775
:1012B000AFFD0028E5D14D4800680028E1D1FFF7D7
:1012C00095FF0120494908608CE04FF48041464871
:1012D000FFF79EFDE0B945480068C8B9444800687A
:1012E000401C434908600846006802287ADD4FF434
:1012F00080413D48FFF78CFD002873D13B480068D2
:1013000000286FD1FFF77CFF01203849086069E0B1
:101310004FF400413448FFF77BFDE0B933480068E3
:10132000C8B933480068401C314908600846006865
:10133000022857DD4FF400412B48FFF769FD0028D4
:1013400050D12A48006800284CD1FFF763FF0120E4
:101350002649086046E002212348FFF759FDC8B935
:1013600022480068B0B922480068401C2049086043
:1013700008460068022835DD02211B48FFF748FDBA
:1013800080BB1A48006868BBFFF74EFF0120174971
:10139000086027E04FF480511348FFF739FD01281A
:1013A00020D141031048FFF733FD01281AD18103F2
:1013B0000D48FFF72DFD012814D1C1030A48FFF79E
:1013C00027FD01280ED102210748FFF721FD012842
:1013D00008D106480068012804D1002004490860AB
:1013E0000249086010BD0000000C01406C000020A4
:1013F0006800002000BFFEE710B5124800780328FF
:1014000002DB00200F4908700F48807820B101F0FE
:10141000C3FE00200C4988700A48007820B10128DA
:1014200007D002280BD107E0FFF73CFDFFF736FAA3
:1014300005E000F06FFE02E000F08EFC00BF00BF90
:1014400010BD00000B0000200400002010B5012199
:10145000080700F097F90121C80600F093F9012070
:1014600000F088F90420FFF76DFB4AF2A55188428D
:1014700020D0012000F0C4F900BF412000F0A2F903
:101480000128FAD1000200F0DBF9012000F0D2F9C6
:1014900000F008FB00F0FCFA47F6FF7000F0E8FAF5
:1014A00000F0F6FA00F030F84AF2A5510420FFF7F8
:1014B00057FB03E000F0F6FA00F0EAFA10BD000076
:1014C00010B58CB000F060FA00F5E1400B900BA86D
:1014D000FEF708FF04462C2221466846FEF776FEFA
:1014E000059800F26C70074908800498401C4880F9
:1014F000039888800298C8800198088100984881E4
:101500000CB010BD4E00002010B58CB01048008803
:10151000A0F26C7006900E484088401E05900C4862
:10152000808804900A48C088039009480089029086
:1015300007484089019001A8FEF7F4FDA0F5E144B9
:10154000204600F087FA00F0A3FA0CB010BD0000AE
:101550004E000020704708B54FF4A06000F08EF8F0
:1015600025208DF8000002208DF801008DF8020082
:1015700001208DF80300684600F048F826208DF819
:10158000000000208DF801008DF8020001208DF888
:101590000300684600F03AF826208DF8000002208B
:1015A0008DF801008DF8020001208DF803006846D7
:1015B00000F02CF81E208DF8000002208DF80100AC
:1015C0008DF8020001208DF80300684600F01EF837
:1015D0001D208DF8000002208DF801008DF802001A
:1015E00001208DF80300684600F010F81C208DF8EB
:1015F000000002208DF801008DF8020001208DF816
:101600000300684600F002F808BD000070B5002134
:1016100000230F22C47804B3154C246804F4E0645A
:10162000C4F5E064210AC1F10403CA40447804FA15
:1016300003F184781440214309010E4C0678A1552A
:10164000047804F01F050124AC4005786D11AD004D
:1016500005F1E025C5F8004109E0047804F01F0514
:101660000124AC40044D0678761145F8264070BD43
:101670000CED00E000E400E080E100E002490143FD
:10168000024A1160704700000000FA050CED00E00E
:1016900070B504460D4605F1B000002100F05EF87B
:1016A000102141EA1410002100F058F804F00F0056
:1016B000002100F053F870BD2DE9F04707460E46B3
:1016C0009046994600250024A8F12000C5B27F2F3E
:1016D00002DD0027B01CC6B2B9F1100F24D131468B
:1016E0003846FFF7D5FF002408E004EB0511194A3E
:1016F000505C012100F032F8601CC4B2082CF4DB0D
:10170000701CC1B23846FFF7C3FF002409E004EBA8
:10171000051108310F4A505C012100F01FF8601CD0
:10172000C4B2082CF3DB12E031463846FFF7B0FFB5
:1017300000240AE005EB4501074A02EB4101085D80
:10174000012100F00BF8601CC4B2062CF2DBBDE8EE
:10175000F0870000C05700089855000870B504468F
:101760000D461DB1E0B200F099FF02E0E0B200F0DA
:101770007FFF70BD014908627047000000000E4203
:101780007047000029B1064AD2690243044BDA616E
:1017900004E0034AD2698243014BDA6170470000DA
:1017A0000010024029B1064A92690243044B9A6133
:1017B00004E0034A92698243014B9A61704700003A
:1017C0000010024010B501460022002300204A11FB
:1017D000012A02D1094C236806E0022A02D1074CF3
:1017E000236A01E0054C636A01F01F020124944062
:1017F0001C400CB1012000E0002010BD0010024090
:1018000000210B4A11700A4A203A82F82010012860
:1018100002D0042808D103E00121054A117004E038
:101820000521034A117000E000BF00BF70470000AF
:101830002010024001490860704700003C04424209
:101840000249096A0143014A1162704700100240CF
:10185000024909888143014A1180704704280040E9
:101860000348008840F010000149088070470000DC
:1018700004280040034800884FF6EF7108400149F2
:10188000088070470428004070B500260024002519
:1018900000F07AF806463848B6FBF0F4374800887E
:1018A000A0423CD035490C8040F2B27510E0284689
:1018B000FFF750FC40B1B4F5B77F02D3A4F5B7747D
:1018C00004E0681C85B206E0A4F26D14681C85B2C1
:1018D000B4F5B67FEBD800BF29488580002516E017
:1018E00027498888FFF736FC30B1012D04D11D2C23
:1018F00001D31D3C09E00CE02248405DA04203D822
:101900002048405D241A00E003E0681C85B21C2CCE
:10191000E6D200BF681C1A498871601CC87116485D
:10192000B6FBF0F100FB11644FF46160B4FBF0F022
:10193000134908704FF46160B4FBF0F100FB1140F3
:101940003C21B0FBF1F00E4948704FF46160B4FBEC
:10195000F0F100FB11403C21B0FBF1F201FB120061
:10196000074988700B46DA799979988800F028F849
:1019700003490872002070BD805101005A00002008
:10198000C00500208C550008002103480188001F75
:10199000008841EA004070471C28004001460020B2
:1019A000064A12880A40D0B2044A121F12880A401E
:1019B00012B108B1012000E0002070470428004067
:1019C000F0B503460C461546642093FBF0F0C6B212
:1019D000642093FBF0F700FB1730C1B2132E02DD39
:1019E00001F16400C1B20846CF1701EB977701EB14
:1019F000A707BAB2072092FBF0F700FB172082B2CC
:101A00005719601EDFF82CC01CF80000384482B261
:101A1000CF1701EB9777BF10A1EB87071FB9032CF6
:101A200001DA501E82B2072092FBF0F700FB17206C
:101A3000C0B2F0BD8055000810B50120FFF7AEFF21
:101A400008B1FFF721FF0520FFF702FF00F020F8A3
:101A500010BD000000B50246FFF702FF100C03495D
:101A60000880091D0A80FFF705FF00BD1828004007
:101A700000B50246FFF7F4FEC2F3034003490880B5
:101A8000091D0A80FFF7F6FE00BD0000082800408F
:101A900000BF0348008800F020000028F9D07047FC
:101AA00004280040074800884FF6F77108400549B0
:101AB000088000BF0348008800F008000028F9D023
:101AC000704700000428004008B58020ADF80000F1
:101AD00003208DF8020048208DF803006946024873
:101AE000FFF70BF908BD00000008014008B5802091
:101AF000ADF8000003208DF8020010208DF80300DF
:101B000069460248FFF7F9F808BD000000080140E7
:101B1000704710B500F002F810BD00000CB50020B1
:101B2000019000903348006840F4803031490860EB
:101B300000BF3048006800F4003000900198401C5D
:101B40000190009818B90198B0F5A06FF1D129481B
:101B5000006800F4003010B10120009001E0002086
:101B600000900098012843D12348006840F01000FD
:101B7000214908600846006820F003000860084614
:101B8000006840F0020008601A484068194948603F
:101B90000846406848600846406840F480604860F5
:101BA0000846406820F47C1048600846406840F4CD
:101BB000E81048600846006840F08070086000BF88
:101BC0000C48006800F000700028F9D0094840680F
:101BD00020F00300074948600846406840F00200D2
:101BE000486000BF0348406800F00C000828F9D1A5
:101BF0000CBD00000010024000200240042808D163
:101C00004FF0E021096941F004014FF0E022116139
:101C100007E04FF0E021096921F004014FF0E022D4
:101C2000116170477047000010B51348006840F01C
:101C300001001149086008464068104908400E49F3
:101C40004860084600680E4908400B49086008468D
:101C5000006820F4802008600846406820F4FE00F8
:101C600048604FF41F008860FFF753FF4FF000609B
:101C70000449086010BD0000001002400000FFF899
:101C8000FFFFF6FE08ED00E010B501211C4800F052
:101C900051F8002833D0FFF7D1FA1A480088401CC9
:101CA0001849088008460088B0F5967F04DB0020BC
:101CB00008800120144908701348C078D8B113482F
:101CC0000088401C1149088008460088642807DB0A
:101CD0000F480088401C0E49088000200B490880EE
:101CE0000B4800880F2806DB00200749C870074909
:101CF0000880074908800121014800F018F810BD4C
:101D0000002C01401E0000200400002020000020C4
:101D10002200002010B50121880700F00BF828B13F
:101D2000FFF78CFA0121880700F001F810BDCA43C3
:101D30000282704730B50246002000230024158A35
:101D400005EA0103958905EA010413B10CB10120EC
:101D500000E0002030BD000000B591B00E2200214F
:101D6000202001F039FA0F220021302001F034FA4E
:101D70001A220021402001F02FFA1B2200215020BE
:101D800001F02AFA0E220221082001F025FA0F2282
:101D90000221182001F020FA1023312202212820EC
:101DA000FFF78AFC10233A2202213020FFF784FC3F
:101DB000A348007898B1A3480078401CA149087056
:101DC00008460078042801D1012008709D48007859
:101DD0009D49087000209D490870994908709C48E9
:101DE000007868B199480078401C98490870084606
:101DF0000078042801D10020087000209449087060
:101E00009448007810B100209249087092480078F8
:101E100000284AD00020904908708A48007801289C
:101E20001FD18A480078012804D0022809D003284D
:101E300015D10DE089480078401E40B287490870EE
:101E40000EE086484078401E40B28449487007E062
:101E500082488078401E40B28049887000E000BF10
:101E600023E07848007802281FD1784800780128BC
:101E700004D0022809D0032815D10DE07848007855
:101E8000401E40B2764908700EE075484078401E0A
:101E900040B27349487007E071488078401E40B2F4
:101EA0006F49887000E000BF00BF674800780128D4
:101EB00004D0022815D0032839D125E010232A2286
:101EC00002210020FFF7F8FB10232022042100202C
:101ED000FFF7F2FB1023202206210020FFF7ECFB86
:101EE00025E01023202202210020FFF7E5FB10232C
:101EF0002A2204210020FFF7DFFB102320220621E5
:101F00000020FFF7D9FB12E010232022022100203D
:101F1000FFF7D2FB1023202204210020FFF7CCFB87
:101F200010232A2206210020FFF7C6FB00BF00BFB6
:101F300045480078012803D102204A4908700EE084
:101F400041480078022803D104204649087006E081
:101F50003D480078032802D10620424908703B48DA
:101F60000078012804D002280AD0032818D10FE0F5
:101F700010233DA23B4801783C2001F0A5F910E078
:101F8000102339A237480178542001F09DF908E068
:101F9000102335A2334801786C2001F095F900E058
:101FA00000BF00BF2D4A921C511E481E00F08CF845
:101FB0002B4A921C511E481E00F086F82B4A511ED7
:101FC000481E00F081F8254890F90200009023484F
:101FD00090F9013090F9002025A10CA800F074FBC5
:101FE00010230CAA0221382001F06EF91C4890F948
:101FF000020000901A4890F9013090F900201CA1CD
:1020000007A800F061FB102307AA0421382001F083
:102010005BF91648801E90F9020000901348801E5C
:1020200090F9013090F9002011A102A800F04CFBBA
:10203000102302AA0621382001F046F911B000BD94
:10204000610000201600002017000020180000206A
:102050006400002062000020630000200D000020CA
:1020600010000020190000205F0000001500002073
:102070002532643A2532643A2532640000200E4944
:10208000887148710871C870087088700A200B49FF
:10209000087014204870002088700B2008490870D0
:1020A00014204870002088700C2006490870142005
:1020B0004870002088707047040000200D00002048
:1020C000100000201300002090F90030172B01DDD4
:1020D0000023037091F900303B2B01DD00230B70CE
:1020E00092F900303B2B01DD0023137090F9003092
:1020F000002B01DA1723037091F90030002B01DA6D
:102100003B230B7092F90030002B01DA3B23137054
:102110007047000010B58CB028220021202001F06B
:102120005BF829220021302001F056F81C22002102
:10213000402001F051F81D220021502001F04CF800
:1021400028220221102001F047F829220221202014
:1021500001F042F810233A2202213020FFF7ACFAB6
:102160002A220421102001F037F82B2204212020FC
:1021700001F032F810233A2204213020FFF79CFAB4
:10218000BE48007898B1BE480078401CBC49087031
:1021900008460078032801D101200870B84800786B
:1021A000B84908700020B8490870B4490870B748A9
:1021B000007868B1B4480078401CB34908700846FC
:1021C0000078042801D1002008700020AF49087071
:1021D000AF480078002844D00020AD490870A848D6
:1021E000007801281CD1A8480078012804D00228D2
:1021F00008D0032812D10BE0A648C088401CA5498E
:10220000C8800CE0A3480089401CA249088106E070
:10221000A0484089401C9F49488100E000BF20E061
:102220009748007802281CD197480078012804D0EC
:10223000022808D0032812D10BE096480088401CE1
:10224000944908800CE093484088401C914948809C
:1022500006E090488088401C8E49888000E000BFDE
:1022600000BF8D480078002844D000208A490870BB
:102270008348007801281CD183480078012804D0C5
:10228000022808D0032812D10BE08248C088401EE3
:102290008049C8800CE07F480089401E7D49088144
:1022A00006E07C484089401E7A49488100E000BF32
:1022B00020E07348007802281CD173480078012878
:1022C00004D0022808D0032812D10BE071480088FE
:1022D000401E704908800CE06E484088401E6D49E1
:1022E000488006E06B488088401E6A49888000E08C
:1022F00000BF00BF63480078012804D0022815D031
:10230000032839D125E010232A2202210020FFF7DB
:10231000D3F91023202204210020FFF7CDF9102348
:10232000202206210020FFF7C7F925E010232022F4
:1023300002210020FFF7C0F910232A2204210020E7
:10234000FFF7BAF91023202206210020FFF7B4F985
:1023500012E01023202202210020FFF7ADF9102304
:10236000202204210020FFF7A7F910232A220621AA
:102370000020FFF7A1F900BF00BF42480078012804
:1023800003D102204549087006E03E480078022843
:1023900002D10420414908703B480078012804D04C
:1023A00002280AD0032818D10FE010233CA23B4892
:1023B00001783C2000F088FF10E0102338A2374855
:1023C0000178542000F080FF08E0102334A2334845
:1023D00001786C2000F078FF00E000BF00BF2848C3
:1023E0000078012803D026480078022805D1264825
:1023F000007810B1FFF788F801E0FFF761F8254891
:10240000C088172802DD00202249C88021480089A1
:102410003B2802DD00201F4908811E4840893B28D7
:1024200002DD00201B4948811A4840890090194864
:102430000389C2881BA107A800F046F9102307AA48
:102440000221382000F040FF124800884FF4FA6162
:1024500090FBF1F201FB12040E48808800900D48B9
:102460004388224612A102A800F02EF9102302AAE6
:102470000421382000F028FF0CB010BD61000020BE
:102480001A0000201B0000201C0000206400002017
:10249000620000204E000020630000201D0000208C
:1024A0005F0000002532643A2532643A2532640028
:1024B0002532642D2532642D2532640010B540F29A
:1024C0002551054800F062F820B140F2255102483C
:1024D00000F040F810BD00000038014010B540F297
:1024E0002551184800F052F850B31748008858B9E1
:1024F000144800F075F81549154A127888541448A4
:102500000078401C1249087011480078022812DB3C
:102510000F480078401E0D49085C0D280BD10021A2
:102520000B480078401E094A1154012006490880D2
:1025300000200749087040F22551024800F00AF8CF
:1025400010BD000000480040260000209000002040
:102550002400002010B50022002340F66A14A14296
:1025600000D100BF0A1201249440A3B2DC430480CE
:1025700010BD02460020B1F5007F00D100BF1388D6
:102580000B400BB1012000E00020704770B50246FF
:10259000002400230025002040F66A16B14200D135
:1025A00000BFC1F3421501F01F03012606FA03F331
:1025B000012D02D19689334006E0022D02D1168A00
:1025C000334001E0968A33400C12012606FA04F4E7
:1025D0001688344013B10CB1012000E0002070BD1A
:1025E00001468888C0F308007047C1F30802828062
:1025F000704700BFFEE770B504460D4629462046E9
:10260000FFF7F3FF00BF80212046FFF7B2FF00284D
:10261000F9D070BD2DE9F04105462C464FF48051AC
:102620001248FEF7FEFB00261CE0274607F0800755
:10263000802F04D139010D48FEF7F5FB04E04FF47B
:1026400000610A48FEF7EDFB6006040E4FF480516E
:102650000648FEF7E8FB4FF480510448FEF7E1FB23
:10266000701CC6B2082EE0DBBDE8F0810008014016
:1026700010B50446FEF7DCFB7820FFF7CBFFFEF732
:1026800003FC0020FFF7C6FFFEF7FEFB2046FFF726
:10269000C1FFFEF7F9FBFEF7E3FB10BD10B50446E2
:1026A000FEF7C6FB7820FFF7B5FFFEF7EDFB4020F5
:1026B000FFF7B0FFFEF7E8FB2046FFF7ABFFFEF7A2
:1026C000E3FBFEF7CDFB10BD0FB4084B10B504A91A
:1026D00002AA039800F0F0F8044602A9002000F0D6
:1026E00082FC204610BC5DF814FB0000E72F0008B8
:1026F00037B514460846064B6A46214600F0DCF81A
:1027000004466946002000F06EFC20463EBD0000F5
:10271000E72F000802E008C8121F08C1002AFAD1FA
:1027200070477047002001E001C1121F002AFBD151
:10273000704700002DE9FF5F82B00021DDE9043021
:10274000020DDDF840B0034318D044F61050A2F259
:10275000FF3242431514119801281FD0A5EB0B003E
:10276000401C5FEA000A4FF000064E4FDFF8389138
:10277000B046504615D5CAF1000413E01198012463
:102780004AA3012801D16FEA0B010298119AC0E90E
:102790000031C0E9024206B0BDE8F09FCBF1000075
:1027A000DFE704460021404A491842EB0450CDE9D6
:1027B000001012E0E00707D032463B46404649464B
:1027C000FDF7BAFE8046894632463B46104619461A
:1027D000FDF7B2FE06460F466410002CEAD1DDE993
:1027E0000401DDE90023BAF1000F06DAFDF7A4FECB
:1027F00042464B46FDF7A0FE05E0FDF70FFF4246BF
:102800004B46FDF70BFF04460E460022284BFDF712
:102810008DFF03D84FF0FF30014607E00022254B23
:1028200020463146FDF7E1FDFDF767FF102409E082
:10283000002C0ADB0A220023FDF723FD039B303224
:102840001A55641E50EA0102F2D1641C039AC4F1C5
:1028500011031444119A012A03D0012208430DD117
:102860000AE0084304D000204FF0110B119072E7EA
:10287000A3EB0B056D1E0DE05B4504DD4FF0000280
:1028800005F1010504E003DA4FF00002A5F10105AE
:10289000002AECD002981199C0E90231C0E9004544
:1028A00079E70000000014400000F03F3000000015
:1028B0000000F0430000E03F2DE9FF4F95B09B463C
:1028C0008946064600250FE2252877D100242746B1
:1028D000F84A0121059400E0044316F8013F203B2B
:1028E00001FA03F01042F7D130782A2811D06FF0A6
:1028F0002F033078A0F13002092A16D8059A44F047
:10290000020402EB820203EB42021044761C0590A3
:10291000EFE759F8042B0592002A03DA504244F4F9
:102920000054059044F00204761C30782E2816D10D
:1029300016F8010F44F004042A280DD06FF02F027E
:102940003078A0F13003092B09D807EB870302EB9D
:102950004303C718761CF3E759F8047B761C3078DC
:102960006C280FD006DC4C2817D068280DD06A28B8
:1029700014D104E0742810D07A280FD10DE044F46B
:1029800000140AE044F4801401E044F44014727826
:10299000824202D104F58014761C761C30786628B9
:1029A0000BD013DC582877D009DC002875D04528D7
:1029B000F6D04628F4D047281AD19DE118E06328C4
:1029C00035D0642879D0652812D195E1702873D06C
:1029D00008DC6728F1D069286FD06E280DD06F28E9
:1029E00006D1B5E073282CD0752875D0782874D01E
:1029F0005A46179990476D1C75E1C4F3025002289E
:102A000009D003280DD0D9F8001004280DD00D608E
:102A100009F1040967E1D9F80010EA17C1E9005289
:102A2000F6E7D9F800100D80F2E70D70F0E719F81D
:102A3000041B8DF8001000208DF80100EA460120EB
:102A400003E059F804AB4FF0FF3061074FF000018D
:102A500002D40DE008F101018846B9420FDA804541
:102A6000F8DB1AF808100029F4D108E008F1010198
:102A700088468142FADB1AF808100029F6D1059839
:102A80005B46A0EB080721463846179A00F094FAF7
:102A9000284400EB080507E04DE029E10DE01AF8B5
:102AA000010B5A4617999047B8F10108F7D25B46D7
:102AB00021463846179A13E142E00A220092C4F3F5
:102AC00002524FF0000A022A08D059F804CB032A18
:102AD0004FEAEC710AD00DE029E02AE009F1070184
:102AE00021F00702F2E802C1914609E00FFA8CFCDE
:102AF0004FEAEC71042A03D14FFA8CFC4FEAEC71D7
:102B0000002907DA0A460021DCF1000C61EB020122
:102B10002D2202E0220504D52B228DF8042001226B
:102B200003E0E20701D02022F7E7904659E00A21AE
:102B300002E010220DE010214FF0000A00910BE09E
:102B400010224FF0000A44F004040827009203E02A
:102B500008224FF0000A0092C4F30252022A05D064
:102B600059F804CB0021032A08D009E009F1070134
:102B700021F00702F2E802C1914605E01FFA8CFC41
:102B8000042A01D10CF0FF0C4FF00008220728D5D1
:102B9000702806D0009B83F0100353EA0A0305D087
:102BA0000EE040228DF80420012208E05CEA0102D8
:102BB00006D030228DF804208DF8050002229046C0
:102BC000009B83F0080353EA0A030AD15CEA01027E
:102BD00001D1620705D530228DF804204FF001089D
:102BE0007F1E582804D034A003900EA802900DE058
:102BF00036A0F9E753466046009AFDF742FB84464B
:102C00000398825C0298401E029002705CEA010008
:102C1000F0D1029806A9081A00F1200A600702D52F
:102C200024F4803400E00127574502DDA7EB0A00B9
:102C300000E0002000EB0A01009005984144401A92
:102C40000590E00306D45B462146179A059800F0EC
:102C5000B3F90544002706E001A85A46C05D17995C
:102C600090476D1C7F1C4745F6DBE0030CD55B46A7
:102C70002146179A059800F09FF9054404E030209A
:102C80005A46179990476D1C0099481E00900029DC
:102C9000F5DC08E0029802995A460078491C029136
:102CA000179990476D1CBAF10001AAF1010AF1DCF5
:102CB00065E1000009280100303132333435363700
:102CC0003839616263646566000000003031323378
:102CD0003435363738394142434445460000000018
:102CE00000F058F90544761C307800287FF4ECADEC
:102CF00019B02846BDE8F08F620700D4062709F115
:102D0000070222F0070CFCE80223E14603F000482A
:102D10005FEA080C02D00FF2702C0DE05FEA045C51
:102D200002D50FF2682C07E05FEAC47C02D00FF2F4
:102D3000602C01E0AFF2700C4FF0FF3823F000433D
:102D4000CDF850C065280CD006DC452809D04628AF
:102D50001DD047283DD13DE0662818D067287ED198
:102D600038E00021112F01DB112000E0781CCDE9B3
:102D7000000106A90EA8FFF7DDFCDDE90F010E9AA0
:102D800003910021009207F1010A04914DE04FF0F8
:102D900000400097CDE9011006A90EA8FFF7CAFC74
:102DA000DDE90F0203920E9B11990022DDF80CA0C1
:102DB0000093049211B9791C00EB010AB7EB0A00E9
:102DC00004D4C0F1FF3007F1010A0490AAEB070018
:102DD000019044E0012F00DA01270021112F01DDCD
:102DE000112000E03846CDE9000106A90EA8FFF742
:102DF000A1FCDDE90F010E9A0391002104910092DC
:102E0000BA4621070CD40399514500DA8A46BAF133
:102E1000010F05DD009AAAF10101515C302908D0AB
:102E2000B84202DA10F1040F06DA0121CDE90110EF
:102E300015E0AAF10101E9E7002805DC0499014445
:102E40000491AAEB000102E0411C514500DD8A46D5
:102E50000499401A401C01904FF000400290200756
:102E600004D40198504501DBCDF8048000208DF892
:102E70004F0002980DF14F07B0F1004F25D02B20E5
:102E80000E9002984FF0020800280CDA404202909F
:102E90002D200E9007E00A210298FDF7DCF9303171
:102EA000029007F8011DB8F10001A8F10108F2DC59
:102EB00002980028EFD1791E0E980870307800F043
:102EC000200040F0450007F8020D12A8C01B00F1D9
:102ED00007081498007800B1012000EB0A0101985E
:102EE00001EBE07105984144401A401E0590E00353
:102EF00006D45B462146179A059800F05DF8054414
:102F00001498007818B15A46179990476D1CE00341
:102F100024D55B462146179A059800F04DF80544E4
:102F20001CE00498002807DBDDE90301884203DD8B
:102F30000098405C179901E0179930205A46904755
:102F4000049805F10105401C04900198401E019071
:102F500004D12E205A46179990476D1CBAF10001F2
:102F6000AAF1010ADDDC05E017F8010B5A461799B2
:102F700090476D1CB8F10001A8F10108F4DC5B4634
:102F80002146179A0598ABE62D0000002B000000A3
:102F9000200000002DE9F041044600251E4617469A
:102FA000880404D405E039462020B0476D1C641E17
:102FB000F9D52846BDE8F0812DE9F0410446002509
:102FC0001E469046C80301D5302700E0202788041C
:102FD00004D505E041463846B0476D1C641EF9D55E
:102FE0002846BDE8F0810A68531C0B6010707047DA
:102FF00010B5FDF74BFD4720FDF718FDFDF77CFDF3
:103000000120FDF7E7FC04464FF6FF7000EA0424B8
:103010000020FDF7DFFC204484B2FDF753FD20467D
:1030200010BD000010B56FF00400FEF7E7FD0A4880
:1030300000680A49B0FBF1F00949087008460078B9
:1030400000EB4001C1EBC0104FF6FF7101EAC00078
:103050000449088010BD00007C00002000127A00A6
:103060005C0000205E0000200146114A12884A439D
:103070004FF0E0235A6100229A611A46126942F029
:1030800001021A6100BF4FF0E022106900F0010256
:103090001AB100F48032002AF5D04FF0E022126914
:1030A00022F001024FF0E0231A6100229A6170477A
:1030B0005E0000200146114A12784A434FF0E02397
:1030C0005A6100229A611A46126942F001021A619D
:1030D00000BF4FF0E022106900F001021AB100F4C5
:1030E0008032002AF5D04FF0E022126922F001026E
:1030F0004FF0E0231A6100229A6170475C000020C3
:103100001CB5FFF78FFFFEF726FA4FF4A060FEF71D
:10311000B5FAFDF749FDFEF73BF8FEF7AFFFFEF706
:1031200095F91DE0FFF764FF0446FDF768F80D49C7
:1031300008600D48FDF790FDFEF75EF90B4800783A
:1031400070B108490868FDF773F8CDE90001064839
:103150000278817806A000F0DFF8002003490870AB
:10316000E0E70000000000207600002004000020BE
:1031700053656E736F72313A2564232C53656E73F9
:103180006F72323A2564232C53656E736F72333A33
:10319000252E32662300000070B5002418E004F1EB
:1031A000B0000021FEF7DAFA00210846FEF7D6FA51
:1031B00000211020FEF7D2FA002505E001210020B1
:1031C000FEF7CCFA681CC5B2802DF7DB601CC4B2D8
:1031D000082CE4DB70BD00002DE9F04180460E466E
:1031E0001546002731464046FEF752FA00240AE011
:1031F000124A02EBC511085D0121FEF7AFFA781CF7
:10320000C7B2601CC4B2102CF2DB701CC1B24046C5
:10321000FEF73EFA00240CE06900491C074A02EB65
:103220008111085D0121FEF799FA781CC7B2601C74
:10323000C4B2102CF0DBBDE8F0810000B05D0008E6
:103240002DE9FF5F074691461E460E9D4FF0000A8E
:10325000002435E0301B401EC1B20A2000F051F8B6
:10326000B9FBF0F00A21B0FBF1F201FB1208BAF150
:10327000000F14D1701EA04211DDB8F1000F0CD167
:10328000AB4605EBDB71491001FB0471C8B22B465C
:1032900020220199FEF710FA10E04FF0010AAB4628
:1032A00005EBDB71491001FB0471C8B208F1300174
:1032B000CAB22B460199FEF7FFF900BF601CC4B2E9
:1032C000B442C7DBBDE8FF9F2DE9F04104460F463D
:1032D0001546984600260FE0AA5D4346394620462B
:1032E000FEF7EAF904F10800C4B2782C02DD0024EC
:1032F000B81CC7B2701CC6B2A85D0028ECD1BDE8EE
:10330000F08110B50246012000E050430B1EA1F1F0
:103310000104E1B2F9D110BD0FB438B50024002585
:1033200005A800900E48009A0499FFF7E1F90020E3
:1033300000900B48FCF75CFF054605E00848015D7E
:103340000848FFF758F9641CAC42F7D300BF40218E
:103350000448FFF70EF90028F9D038BC5DF814FBDB
:103360004005002000480040000000000000000070
:10337000002F000000000700070000147F147F14D6
:1033800000242A7F2A12006264081323003649555C
:10339000225000000503000000001C224100000034
:1033A00041221C000014083E08140008083E0808CA
:1033B000000000A060000008080808080000606025
:1033C0000000002010080402003E5149453E000064
:1033D000427F4000004261514946002141454B3146
:1033E000001814127F10002745454539003C4A4912
:1033F0004930000171090503003649494936000684
:103400004949291E000036360000000056360000EB
:103410000008142241000014141414140000412266
:10342000140800020151090600324959513E007C3E
:103430001211127C007F49494936003E4141412228
:10344000007F4141221C007F49494941007F090911
:103450000901003E4149497A007F0808087F0000C1
:10346000417F4100002040413F01007F081422417C
:10347000007F40404040007F020C027F007F040834
:10348000107F003E4141413E007F09090906003E90
:103490004151215E007F09192946004649494931B9
:1034A0000001017F0101003F4040403F001F2040DC
:1034B000201F003F4038403F00631408146300079A
:1034C0000870080700615149454300007F414100F1
:1034D00000552A552A55000041417F000004020191
:1034E000020400404040404000000102040000206F
:1034F00054545478007F48444438003844444420AD
:1035000000384444487F00385454541800087E0959
:1035100001020018A4A4A47C007F08040478000021
:10352000447D4000004080847D00007F10284400DE
:103530000000417F4000007C04180478007C0804EF
:10354000047800384444443800FC2424241800182B
:10355000242418FC007C0804040800485454542017
:1035600000043F444020003C4040207C001C2040A0
:10357000201C003C4030403C004428102844001CE3
:10358000A0A0A07C004464544C44141414141414DB
:10359000000000000000000000000000000000002B
:1035A000000000F8000000000000003330000000C0
:1035B00000100C06100C06000000000000000000C7
:1035C00040C07840C0784000043F04043F04040039
:1035D000007088FC08300000001820FF211E000049
:1035E000F008F000E018000000211C031E211E005E
:1035F00000F00888700000001E21232419272110E4
:1036000010160E0000000000000000000000000086
:10361000000000E01804020000000007182040002D
:1036200000020418E000000000402018070000001D
:10363000404080F0804040000202010F0102020081
:10364000000000F0000000000101011F0101010065
:10365000000000000000000080B0700000000000CA
:103660000000000000000000000101010101010153
:1036700000000000000000000030300000000000EA
:1036800000000000806018040060180601000000BF
:1036900000E010080810E000000F102020100F00BC
:1036A000001010F8000000000020203F2020000043
:1036B000007008080888700000302824222130009B
:1036C00000300888884830000018202020110E00A3
:1036D0000000C02010F8000000070424243F24004C
:1036E00000F80888880808000019212020110E0021
:1036F00000E0108888180000000F112020110E0033
:1037000000380808C83808000000003F000000002A
:103710000070880808887000001C222121221C00EB
:1037200000E010080810E0000000312222110F0014
:10373000000000C0C00000000000003030000000A9
:103740000000008000000000000080600000000019
:103750000000804020100800000102040810200032
:10376000404040404040400004040404040404007D
:103770000008102040800000002010080402010012
:10378000007048080808F000000000303601000012
:10379000C030C828E810E0000718272423140B00C5
:1037A0000000C038E0000000203C2302022738203F
:1037B00008F8888888700000203F202020110E0023
:1037C000C03008080808380007182020201008001A
:1037D00008F808080810E000203F202020100F0003
:1037E00008F88888E8081000203F202023201800CF
:1037F00008F88888E8081000203F20000300000037
:10380000C03008080838000007182020221E0200D7
:1038100008F808000008F808203F210101213F2096
:10382000000808F8080800000020203F20200000C1
:1038300000000808F8080800C08080807F000000B1
:1038400008F888C028180800203F200126382000EA
:1038500008F8080000000000203F20202020300051
:1038600008F8F800F8F80800203F003F003F20006B
:1038700008F830C00008F808203F200007183F0073
:10388000E01008080810E0000F10202020100F00A2
:1038900008F808080808F000203F21010101000095
:1038A000E01008080810E0000F18242438504F00DA
:1038B00008F8888888887000203F2000030C30209A
:1038C00000708808080838000038202121221C00D8
:1038D000180808F8080818000000203F2000000021
:1038E00008F808000008F808001F202020201F000A
:1038F0000878880000C83808000007380E0100006A
:10390000F80800F80008F800033C0700073C030033
:10391000081868808068180820302C03032C302099
:103920000838C800C83808000000203F2000000008
:1039300010080808C8380800203826212020180060
:10394000000000FE020202000000007F4040400034
:10395000000C30C000000000000000010638C0006C
:1039600000020202FE000000004040407F00000014
:103970000000040202020400000000000000000039
:103980000000000000000000808080808080808037
:10399000000202040000000000000000000000001F
:1039A00000008080808000000019242222223F2015
:1039B00008F8008080000000003F112020110E0058
:1039C0000000008080800000000E112020201100E7
:1039D000000000808088F800000E112020103F2099
:1039E0000000808080800000001F2222222213001D
:1039F000008080F0888888180020203F2020000068
:103A00000000808080808000006B9494949360001C
:103A100008F8008080800000203F210000203F2027
:103A200000809898000000000020203F2020000027
:103A3000000000809898000000C08080807F000017
:103A400008F8000080808000203F24022D302000F4
:103A5000000808F8000000000020203F202000009F
:103A60008080808080808000203F20003F20003FB9
:103A70008080008080800000203F210000203F20C7
:103A80000000808080800000001F202020201F0078
:103A9000808000808000000080FFA12020110E00A7
:103AA0000000008080808000000E112020A0FF8098
:103AB000808080008080800020203F212000010045
:103AC000000080808080800000332424242419009A
:103AD000008080E0808000000000001F20200000A7
:103AE0008080000000808000001F202020103F20E8
:103AF000808080000080808000010E300806010078
:103B000080800080008080800F300C030C300F001C
:103B100000808000808080000020312E0E31200047
:103B2000808080000080808080818E701806010077
:103B300000808080808080000021302C2221300095
:103B400000000000807C020200000000003F4040B6
:103B500000000000FF00000000000000FF00000067
:103B60000002027C800000000040403F0000000096
:103B70000006010102020404000000000000000031
:103B800000448C1800FCA4A4A4A4A4A424FC000059
:103B90000000000000000000000000000000000025
:103BA0000000000000000000000000000000000015
:103BB0000000000000000000000000000000000005
:103BC00000C03887F88484FC8484FC8485FC8000F1
:103BD00000000000000000000000000000000000E5
:103BE00000000000000000000000000000000000D5
:103BF00000000000000000000000000000000000C5
:103C00000040841810FCA4A4A4A4A4A4A4FC000054
:103C100000000000000000000000000000000000A4
:103C20000000000000000000000000000000000094
:103C30000000000000000000000000000000000084
:103C400000C03A85829CA0FF8080FF80908C80001D
:103C50000000000000000000000000000000000064
:103C60000000000000000000000000000000000054
:103C70000000000000000000000000000000000044
:103C800000F0082828F828282C2828F828280800D8
:103C90000000000000000000000000000000000024
:103CA0000000000000000000000000000000000014
:103CB0000000000000000000000000000000000004
:103CC000807F8084848C5565256555958C80800027
:103CD00000000000000000000000000000000000E4
:103CE00000000000000000000000000000000000D4
:103CF00000000000000000000000000000000000C4
:103D0000000018A8D8201010101010307800000003
:103D100000000000000000000000000000000000A3
:103D20000000000000000000000000000000000093
:103D30000000000000000000000000000000000083
:103D4000000000071F302020202020101800000055
:103D50000000000000000000000000000000000063
:103D60000000000000000000000000000000000053
:103D70000000000000000000000000000000000043
:103D800000F000FE60182020FE202020FE202000F1
:103D90000000000000000000000000000000000023
:103DA0000000000000000000000000000000000013
:103DB0000000000000000000000000000000000003
:103DC0000081700F186084641F04040C1764840061
:103DD00000000000000000000000000000000000E3
:103DE00000000000000000000000000000000000D3
:103DF00000000000000000000000000000000000C3
:103E000000808484848484FC84848484848480000A
:103E100000000000000000000000000000000000A2
:103E20000000000000000000000000000000000092
:103E30000000000000000000000000000000000082
:103E400000000000000000FF000000000000000073
:103E50000000000000000000000000000000000062
:103E60000000000000000000000000000000000052
:103E70000000000000000000000000000000000042
:103E800000808088F08080FE8080C0A098848000C0
:103E90000000000000000000000000000000000022
:103EA0000000000000000000000000000000000012
:103EB0000000000000000000000000000000000002
:103EC00000808040300F000000FF80808080700004
:103ED00000000000000000000000000000000000E2
:103EE00000000000000000000000000000000000D2
:103EF00000000000000000000000000000000000C2
:103F000000FC4444FC0044243C244444447C000021
:103F100000000000000000000000000000000000A1
:103F20000000000000000000000000000000000091
:103F30000000000000000000000000000000000081
:103F4000008F78080F20C70909798909196F800047
:103F50000000000000000000000000000000000061
:103F60000000000000000000000000000000000051
:103F70000000000000000000000000000000000041
:103F80000020FCE0200098E08080FE80E0980000A7
:103F90000000000000000000000000000000000021
:103FA0000000000000000000000000000000000011
:103FB0000000000000000000000000000000000001
:103FC00008077F00018988888888888888887F001A
:103FD00000000000000000000000000000000000E1
:103FE00000000000000000000000000000000000D1
:103FF00000000000000000000000000000000000C1
:104000000080E01C0010D010101C1010B0501000E8
:1040100000000000000000000000000000000000A0
:104020000000000000000000000000000000000090
:104030000000000000000000000000000000000080
:104040000001FF00808083BC808080F88780800032
:104050000000000000000000000000000000000060
:104060000000000000000000000000000000000050
:104070000000000000000000000000000000000040
:1040800000000404FC040404040404FC0404000010
:104090000000000000000000000000000000000020
:1040A0000000000000000000000000000000000010
:1040B0000000000000000000000000000000000000
:1040C000000181611F010101010101FF01010100E6
:1040D00000000000000000000000000000000000E0
:1040E00000000000000000000000000000000000D0
:1040F00000000000000000000000000000000000C0
:1041000000001010141810F01010181410100000F7
:10411000000000000000000000000000000000009F
:10412000000000000000000000000000000000008F
:10413000000000000000000000000000000000007F
:104140000081814121211907070911214181810045
:10415000000000000000000000000000000000005F
:10416000000000000000000000000000000000004F
:10417000000000000000000000000000000000003F
:104180000000F8888888888E888888888878000069
:10419000000000000000000000000000000000001F
:1041A000000000000000000000000000000000000F
:1041B00000000000000000000000000000000000FF
:1041C0000078077C828282828282828282FE000064
:1041D00000000000000000000000000000000000DF
:1041E00000000000000000000000000000000000CF
:1041F00000000000000000000000000000000000BF
:1042000000F0004C40404444CCF4444444FC0000E2
:10421000000000000000000000000000000000009E
:10422000000000000000000000000000000000008E
:10423000000000000000000000000000000000007E
:10424000007F000808042221203F0040407F00003A
:10425000000000000000000000000000000000005E
:10426000000000000000000000000000000000004E
:10427000000000000000000000000000000000003E
:1042800000F0002C202024F4242424242408F80006
:10429000000000000000000000000000000000001E
:1042A000000000000000000000000000000000000E
:1042B00000000000000000000000000000000000FE
:1042C00000FF00001F01017F0101219F8000FF000E
:1042D00000000000000000000000000000000000DE
:1042E00000000000000000000000000000000000CE
:1042F00000000000000000000000000000000000BE
:1043000000B08C88888800F01010FC101010F000AD
:10431000000000000000000000000000000000009D
:10432000000000000000000000000000000000008D
:10433000000000000000000000000000000000007D
:10434000000404FF8444000F0808FF0808080F0059
:10435000000000000000000000000000000000005D
:10436000000000000000000000000000000000004D
:10437000000000000000000000000000000000003D
:1043800000FC04E41C20605048C444485050200005
:10439000000000000000000000000000000000001D
:1043A000000000000000000000000000000000000D
:1043B00000000000000000000000000000000000FD
:1043C00000FF08104F20128A82FF02020A126200C8
:1043D00000000000000000000000000000000000DD
:1043E00000000000000000000000000000000000CD
:1043F00000000000000000000000000000000000BD
:104400000040841810FCA4A4A4A4A4A4A4FC00004C
:10441000000000000000000000000000000000009C
:10442000000000000000000000000000000000008C
:10443000000000000000000000000000000000007C
:1044400000C03A85829CA0FF8080FF80908C800015
:10445000000000000000000000000000000000005C
:10446000000000000000000000000000000000004C
:10447000000000000000000000000000000000003C
:10448000000004446454CCC444243414820000006A
:10449000000000000000000000000000000000001C
:1044A000000000000000000000000000000000000C
:1044B00000000000000000000000000000000000FC
:1044C000008062120F8382FE0202061A33C60000C9
:1044D00000000000000000000000000000000000DC
:1044E00000000000000000000000000000000000CC
:1044F00000000000000000000000000000000000BC
:1045000000C0B08CC020088868180C0868880800B3
:10451000000000000000000000000000000000009B
:10452000000000000000000000000000000000008B
:10453000000000000000000000000000000000007B
:104540000098944B48C8C8611F0101FF8181F200A7
:10455000000000000000000000000000000000005B
:10456000000000000000000000000000000000004B
:10457000000000000000000000000000000000003B
:10458000004020108C888888F8888888888888006F
:10459000000000000000000000000000000000001B
:1045A000000000000000000000000000000000000B
:1045B00000000000000000000000000000000000FB
:1045C0000008080F08080808FF080808080808007D
:1045D00000000000000000000000000000000000DB
:1045E00000000000000000000000000000000000CB
:1045F00000000000000000000000000000000000BB
:10460000000000FC4444444444444444FC00000092
:10461000000000000000000000000000000000009A
:10462000000000000000000000000000000000008A
:10463000000000000000000000000000000000007A
:104640000080700F0404040404848484FF000000CC
:10465000000000000000000000000000000000005A
:10466000000000000000000000000000000000004A
:10467000000000000000000000000000000000003A
:10468000000000FC040404040404040404FC00000E
:10469000000000000000000000000000000000001A
:1046A000000000000000000000000000000000000A
:1046B00000000000000000000000000000000000FA
:1046C0000000007F4141414141414141817F000063
:1046D00000000000000000000000000000000000DA
:1046E00000000000000000000000000000000000CA
:1046F00000000000000000000000000000000000BA
:1047000000F8080808F8109010101010FC101000A5
:104710000000000000000000000000000000000099
:104720000000000000000000000000000000000089
:104730000000000000000000000000000000000079
:10474000007F8282827F000041868880FF00000017
:104750000000000000000000000000000000000059
:104760000000000000000000000000000000000049
:104770000000000000000000000000000000000039
:10478000008080C0B08C808080828C90A0408000AF
:104790000000000000000000000000000000000019
:1047A0000000000000000000000000000000000009
:1047B00000000000000000000000000000000000F9
:1047C0000080804020180700808080807F000001EA
:1047D00000000000000000000000000000000000D9
:1047E00000000000000000000000000000000000C9
:1047F00000000000000000000000000000000000B9
:10480000004444FC444440F00000FE00007080007E
:104810000000000000000000000000000000000098
:104820000000000000000000000000000000000088
:104830000000000000000000000000000000000078
:10484000100C03FF0304838080805F20100E0100A2
:104850000000000000000000000000000000000058
:104860000000000000000000000000000000000048
:104870000000000000000000000000000000000038
:1048800000404CD8000000601C0404047C80400000
:104890000000000000000000000000000000000018
:1048A0000000000000000000000000000000000008
:1048B00000000000000000000000000000000000F8
:1048C0000000007F40208081475921314D838000C6
:1048D00000000000000000000000000000000000D8
:1048E00000000000000000000000000000000000C8
:1048F00000000000000000000000000000000000B8
:1049000000586464645C64E4645C6464645C4000F7
:104910000000000000000000000000000000000097
:104920000000000000000000000000000000000087
:104930000000000000000000000000000000000077
:10494000808080FFB5B5B5B5B5B5B5B5FF808080C1
:104950000000000000000000000000000000000057
:104960000000000000000000000000000000000047
:104970000000000000000000000000000000000037
:104980000020E0FCA02008C8280C0808688808005F
:104990000000000000000000000000000000000017
:1049A0000000000000000000000000000000000007
:1049B00000000000000000000000000000000000F7
:1049C000080601FF01808241432C102C43418200E4
:1049D00000000000000000000000000000000000D7
:1049E00000000000000000000000000000000000C7
:1049F00000000000000000000000000000000000B7
:104A0000000004C404040404FC04040404040400BA
:104A10000000000000000000000000000000000096
:104A20000000000000000000000000000000000086
:104A30000000000000000000000000000000000076
:104A4000808080FF80808080FF81818181818000E3
:104A50000000000000000000000000000000000056
:104A60000000000000000000000000000000000046
:104A70000000000000000000000000000000000036
:104A800000040404847C44444444444444C4040076
:104A90000000000000000000000000000000000016
:104AA0000000000000000000000000000000000006
:104AB00000000000000000000000000000000000F6
:104AC000008040300F00004080808080601F000028
:104AD00000000000000000000000000000000000D6
:104AE00000000000000000000000000000000000C6
:104AF00000000000000000000000000000000000B6
:104B0000004020108C888888F888888888888800E9
:104B10000000000000000000000000000000000095
:104B20000000000000000000000000000000000085
:104B30000000000000000000000000000000000075
:104B40000008080F08080808FF08080808080800F7
:104B50000000000000000000000000000000000055
:104B60000000000000000000000000000000000045
:104B70000000000000000000000000000000000035
:104B80000000FC44444444FC4444444444C4040001
:104B90000000000000000000000000000000000015
:104BA0000000000000000000000000000000000005
:104BB00000000000000000000000000000000000F5
:104BC00000700F804020180700808080807F0000E8
:104BD00000000000000000000000000000000000D5
:104BE00000000000000000000000000000000000C5
:104BF00000000000000000000000000000000000B5
:104C000000000404FC040404040404FC0404000084
:104C10000000000000000000000000000000000094
:104C20000000000000000000000000000000000084
:104C30000000000000000000000000000000000074
:104C4000000181611F010101010101FF010101005A
:104C50000000000000000000000000000000000054
:104C60000000000000000000000000000000000044
:104C70000000000000000000000000000000000034
:104C80000010FC1010F000C0A098848080B0C0001C
:104C90000000000000000000000000000000000014
:104CA0000000000000000000000000000000000004
:104CB00000000000000000000000000000000000F4
:104CC00000874830384700788484848484847C0159
:104CD00000000000000000000000000000000000D4
:104CE00000000000000000000000000000000000C4
:104CF00000000000000000000000000000000000B4
:104D000000C0B08CC03090909090FE909090900039
:104D10000000000000000000000000000000000093
:104D20000000000000000000000000000000000083
:104D30000000000000000000000000000000000073
:104D400000484E4924247884848484848484FC002C
:104D50000000000000000000000000000000000053
:104D60000000000000000000000000000000000043
:104D70000000000000000000000000000000000033
:104D80000008C828282828FC2828282828C808001F
:104D90000000000000000000000000000000000013
:104DA0000000000000000000000000000000000003
:104DB00000000000000000000000000000000000F3
:104DC0000080434422120AFF060A12224443800054
:104DD00000000000000000000000000000000000D3
:104DE00000000000000000000000000000000000C3
:104DF00000000000000000000000000000000000B3
:104E000000000000000000FC8080808080800000A6
:104E10000000000000000000000000000000000092
:104E20000000000000000000000000000000000082
:104E30000000000000000000000000000000000072
:104E400000808080808080FF8080808080808000E3
:104E50000000000000000000000000000000000052
:104E60000000000000000000000000000000000042
:104E70000000000000000000000000000000000032
:104E800004040404040404FC24448404040404000E
:104E90000000000000000000000000000000000012
:104EA0000000000000000000000000000000000002
:104EB00000000000000000000000000000000000F2
:104EC00000000000000000FF0000000102000000E0
:104ED00000000000000000000000000000000000D2
:104EE00000000000000000000000000000000000C2
:104EF00000000000000000000000000000000000B2
:104F000000FC0444BC00FC242424242424FC0000D1
:104F10000000000000000000000000000000000091
:104F20000000000000000000000000000000000081
:104F30000000000000000000000000000000000071
:104F400000FF08080F00FF81818719314985800023
:104F50000000000000000000000000000000000051
:104F60000000000000000000000000000000000041
:104F70000000000000000000000000000000000031
:104F800000F8080808F8109010101010FC1010001D
:104F90000000000000000000000000000000000011
:104FA0000000000000000000000000000000000001
:104FB00000000000000000000000000000000000F1
:104FC000007F8282827F000041868880FF0000008F
:104FD00000000000000000000000000000000000D1
:104FE00000000000000000000000000000000000C1
:104FF00000000000000000000000000000000000B1
:1050000000E00608C0402424242444C40404F8001A
:105010000000000000000000000000000000000090
:105020000000000000000000000000000000000080
:105030000000000000000000000000000000000070
:1050400000FF00001F222222222222BF80807F0038
:105050000000000000000000000000000000000050
:105060000000000000000000000000000000000040
:105070000000000000000000000000000000000030
:10508000000000FC040404040404040404FC000004
:105090000000000000000000000000000000000010
:1050A0000000000000000000000000000000000000
:1050B00000000000000000000000000000000000F0
:1050C0000000007F4141414141414141817F000059
:1050D00000000000000000000000000000000000D0
:1050E00000000000000000000000000000000000C0
:1050F00000000000000000000000000000000000B0
:105100000008FC484848FC0800F844444444F800BF
:10511000000000000000000000000000000000008F
:10512000000000000000000000000000000000007F
:10513000000000000000000000000000000000006F
:1051400000886F0909096F88D03F04048404FF00B8
:10515000000000000000000000000000000000004F
:10516000000000000000000000000000000000003F
:10517000000000000000000000000000000000002F
:105180000000689494949494949494949478000077
:10519000000000000000000000000000000000000F
:1051A00000000000000000000000000000000000FF
:1051B00000000000000000000000000000000000EF
:1051C0000088849293929292FF929292929280009F
:1051D00000000000000000000000000000000000CF
:1051E00000000000000000000000000000000000BF
:1051F00000000000000000000000000000000000AF
:105200000008FC484848FC0800F844444444F800BE
:10521000000000000000000000000000000000008E
:10522000000000000000000000000000000000007E
:10523000000000000000000000000000000000006E
:1052400000886F0909096F88D03F04048404FF00B7
:10525000000000000000000000000000000000004E
:10526000000000000000000000000000000000003E
:10527000000000000000000000000000000000002E
:10528000000000000000000000000000000000001E
:10529000000000000000000000000000000000000E
:1052A00000000000000000000000000000000000FE
:1052B00000000000000000000000000000000000EE
:1052C00000010101010101010101010101010100D0
:1052D00000000000000000000000000000000000CE
:1052E00000000000000000000000000000000000BE
:1052F00000000000000000000000000000000000AE
:10530000000008080808080808080808080800003D
:10531000000000000000000000000000000000008D
:10532000000000000000000000000000000000007D
:10533000000000000000000000000000000000006D
:10534000002020202020202020202020202020009D
:10535000000000000000000000000000000000004D
:10536000000000000000000000000000000000003D
:10537000000000000000000000000000000000002D
:1053800000000808080808080808080808080000BD
:10539000000000000000000000000000000000000D
:1053A00000000000000000000000000000000000FD
:1053B00000000000000000000000000000000000ED
:1053C0000040414141414141414141414140400052
:1053D00000000000000000000000000000000000CD
:1053E00000000000000000000000000000000000BD
:1053F00000000000000000000000000000000000AD
:105400000000FC040404FC0404FC040404FC00008C
:10541000000000000000000000000000000000008C
:10542000000000000000000000000000000000007C
:10543000000000000000000000000000000000006C
:105440000000FF88888681808087888888FF000028
:10545000000000000000000000000000000000004C
:10546000000000000000000000000000000000003C
:10547000000000000000000000000000000000002C
:10548000000484848484FC848484848484040000F0
:10549000000000000000000000000000000000000C
:1054A00000000000000000000000000000000000FC
:1054B00000000000000000000000000000000000EC
:1054C0000080808080FE818080808080FF8080805E
:1054D00000000000000000000000000000000000CC
:1054E00000000000000000000000000000000000BC
:1054F00000000000000000000000000000000000AC
:10550000004040404040404C7040C040404040005F
:10551000000000000000000000000000000000008B
:10552000000000000000000000000000000000007B
:10553000000000000000000000000000000000006B
:10554000008040300C030000000001060830C0005D
:10555000000000000000000000000000000000004B
:10556000000000000000000000000000000000003B
:10557000000000000000000000000000000000002B
:105580000003030601040602050003051F1C1F1E7D
:105590001F1E1F1F1E1F1E1F000000000000000016
:1055A000002F000000000700070000147F147F1484
:1055B00000242A7F2A12006264081323003649550A
:1055C000225000000503000000001C2241000000E2
:1055D00041221C000014083E08140008083E080878
:1055E000000000A0600000080808080800006060D3
:1055F0000000002010080402003E5149453E000012
:10560000427F4000004261514946002141454B31F3
:10561000001814127F10002745454539003C4A49BF
:105620004930000171090503003649494936000631
:105630004949291E00003636000000005636000099
:105640000008142241000014141414140000412214
:10565000140800020151090600324959513E007CEC
:105660001211127C007F49494936003E41414122D6
:10567000007F4141221C007F49494941007F0909BF
:105680000901003E4149497A007F0808087F00006F
:10569000417F4100002040413F01007F081422412A
:1056A000007F40404040007F020C027F007F0408E2
:1056B000107F003E4141413E007F09090906003E3E
:1056C0004151215E007F0919294600464949493167
:1056D0000001017F0101003F4040403F001F20408A
:1056E000201F003F4038403F006314081463000748
:1056F0000870080700615149454300007F4141009F
:1057000000552A552A55000041417F00000402013E
:10571000020400404040404000000102040000201C
:1057200054545478007F484444380038444444205A
:1057300000384444487F00385454541800087E0907
:1057400001020018A4A4A47C007F080404780000CF
:10575000447D4000004080847D00007F102844008C
:105760000000417F4000007C04180478007C08049D
:10577000047800384444443800FC242424180018D9
:10578000242418FC007C08040408004854545420C5
:1057900000043F444020003C4040207C001C20404E
:1057A000201C003C4030403C004428102844001C91
:1057B000A0A0A07C004464544C4414141414141489
:1057C00000000000000000000000000000000000D9
:1057D000000000F80000000000000033300000006E
:1057E00000100C06100C0600000000000000000075
:1057F00040C07840C0784000043F04043F040400E7
:10580000007088FC08300000001820FF211E0000F6
:10581000F008F000E018000000211C031E211E000B
:1058200000F00888700000001E2123241927211091
:1058300010160E0000000000000000000000000034
:10584000000000E0180402000000000718204000DB
:1058500000020418E00000000040201807000000CB
:10586000404080F0804040000202010F010202002F
:10587000000000F0000000000101011F0101010013
:10588000000000000000000080B070000000000078
:105890000000000000000000000101010101010101
:1058A0000000000000000000003030000000000098
:1058B000000000008060180400601806010000006D
:1058C00000E010080810E000000F102020100F006A
:1058D000001010F8000000000020203F20200000F1
:1058E0000070080808887000003028242221300049
:1058F00000300888884830000018202020110E0051
:105900000000C02010F8000000070424243F2400F9
:1059100000F80888880808000019212020110E00CE
:1059200000E0108888180000000F112020110E00E0
:1059300000380808C83808000000003F00000000D8
:105940000070880808887000001C222121221C0099
:1059500000E010080810E0000000312222110F00C2
:10596000000000C0C0000000000000303000000057
:1059700000000080000000000000806000000000C7
:1059800000008040201008000001020408102000E0
:10599000404040404040400004040404040404002B
:1059A00000081020408000000020100804020100C0
:1059B000007048080808F0000000003036010000C0
:1059C000C030C828E810E0000718272423140B0073
:1059D0000000C038E0000000203C230202273820ED
:1059E00008F8888888700000203F202020110E00D1
:1059F000C0300808080838000718202020100800C8
:105A000008F808080810E000203F202020100F00B0
:105A100008F88888E8081000203F2020232018007C
:105A200008F88888E8081000203F200003000000E4
:105A3000C03008080838000007182020221E020085
:105A400008F808000008F808203F210101213F2044
:105A5000000808F8080800000020203F202000006F
:105A600000000808F8080800C08080807F0000005F
:105A700008F888C028180800203F20012638200098
:105A800008F8080000000000203F202020203000FF
:105A900008F8F800F8F80800203F003F003F200019
:105AA00008F830C00008F808203F200007183F0021
:105AB000E01008080810E0000F10202020100F0050
:105AC00008F808080808F000203F21010101000043
:105AD000E01008080810E0000F18242438504F0088
